:020000040000FA
:100000000C9462000C948A000C948A000C948A0070
:100010000C948A000C948A000C948A000C948A0038
:100020000C948A000C948A000C948A000C948A0028
:100030000C948A000C948A000C948A000C948A0018
:100040000C94FA020C948A000C948A000C948A0096
:100050000C948A000C948A000C948A000C948A00F8
:100060000C948A000C948A000000000024002700F1
:100070002A0000000000250028002B0000000000DE
:1000800023002600290004040404040404040202DA
:100090000202020203030303030301020408102007
:1000A0004080010204081020010204081020000012
:1000B0000008000201000003040700000000000027
:1000C0000000990411241FBECFEFD8E0DEBFCDBFE2
:1000D00011E0A0E0B1E0EEE7F9E002C005900D927A
:1000E000AC32B107D9F721E0ACE2B1E001C01D921A
:1000F000A335B207E1F710E0C2E6D0E004C02197D3
:10010000FE010E94B704C136D107C9F70E9444031B
:100110000C94BD040C940000AF92BF92CF92DF927A
:10012000EF92FF920F931F93CF93DF936C017B01AC
:100130008B01040F151FEB015E01AE18BF08C0173D
:10014000D10759F06991D601ED91FC910190F081B0
:10015000E02DC6010995892B79F7C501DF91CF9173
:100160001F910F91FF90EF90DF90CF90BF90AF90D5
:100170000895833081F028F4813099F08230A9F01D
:1001800008958730A9F08830C9F08430B1F48091A7
:1001900080008F7D03C0809180008F7780938000E6
:1001A000089584B58F7784BD089584B58F7DFBCF86
:1001B0008091B0008F778093B00008958091B00057
:1001C0008F7DF9CFCF93DF93282F30E0F901E255EF
:1001D000FF4F8491F901E656FF4FD491F901EA5798
:1001E000FF4FC491CC23A1F081110E94B900EC2FE4
:1001F000F0E0EE0FFF1FE458FF4FA591B491EC9192
:10020000ED2381E090E009F480E0DF91CF91089543
:1002100080E090E0FACF1F93CF93DF93282F30E058
:10022000F901E255FF4F8491F901E656FF4FD49151
:10023000F901EA57FF4FC491CC23A9F0162F811181
:100240000E94B900EC2FF0E0EE0FFF1FEE58FF4FB9
:10025000A591B4918FB7F894EC91111108C0D09585
:10026000DE23DC938FBFDF91CF911F910895DE2BAA
:10027000F8CFCF93DF9390E0FC01E656FF4F249137
:100280008A579F4FFC0184918823D1F090E0880F1A
:10029000991FFC01E859FF4FA591B491FC01EE585C
:1002A000FF4FC591D491623071F49FB7F8943C919F
:1002B000822F809583238C93E8812E2B28839FBFE8
:1002C000DF91CF9108958FB7F894EC912E2B2C935A
:1002D0008FBFF6CF3FB7F89480912D0190912E01FA
:1002E000A0912F01B091300126B5A89B05C02F3FEA
:1002F00019F00196A11DB11D3FBFBA2FA92F982F4C
:100300008827BC01CD01620F711D811D911D42E046
:10031000660F771F881F991F4A95D1F70895089592
:1003200090E080E00895FC0101900020E9F731970A
:10033000AF01481B590BBC018BE391E00C948C007E
:10034000CF93DF93EC0160E08E810E940B0161E0AE
:100350008E810E940B0160E08E810E940B018BE870
:1003600091E00197F1F7DF91CF910895CF92DF925D
:10037000EF92FF920F931F93CF93DF936C017C0159
:1003800087E0E80EF11CD0E0C0E0062F10E0B801D5
:100390000C2E02C0759567950A94E2F76170F7011B
:1003A00081917F010E940B012196C430D10579F71C
:1003B000C601DF91CF911F910F91FF90EF90DF90D9
:1003C000CF900C94A001CF92DF92EF92FF920F9307
:1003D0001F93CF93DF93EC01F62E642F8C810E9444
:1003E0000B018D818F3F19F060E00E940B010F2DF2
:1003F00010E08F8584FF25C06E0187E0C80ED11CF8
:10040000F12CE12CB8010E2C02C0759567950A9469
:10041000E2F76170F60181916F010E940B01FFEF1D
:10042000EF1AFF0A88E0E816F10461F7CE01DF91C8
:10043000CF911F910F91FF90EF90DF90CF900C9490
:10044000A001B80184E0759567958A95E1F7CE0122
:100450000E94B6016F2DCE01DF91CF911F910F91B8
:10046000FF90EF90DF90CF900C94B60140E0682FA2
:100470008BE391E00C94E301CF93DF93823029F476
:1004800090914A01986090934A0180934E01109296
:100490004F0180E48093500180E18093510180E519
:1004A0008093520161E080913F010E943901809167
:1004B00040018F3F19F061E00E94390161E08091B5
:1004C00041010E943901CBE3D1E09E012B53314021
:1004D00080914A0184FD0BC084E090E021962817AA
:1004E000390744F461E08E810E943901EECF88E043
:1004F00090E0F4CF8BE39DE00197F1F760E080910D
:100500003F010E940B0160E0809141010E940B01BC
:10051000809140018F3F19F060E00E940B018091B3
:100520004A0184FD39C063E08BE391E00E94B6018B
:10053000CBE4D6E4CE010197F1F763E08BE391E0E1
:100540000E94B6012197F1F763E08BE391E00E94EE
:10055000B60183E592E00197F1F762E08BE391E069
:100560000E94B60180914A0180620E94360284E0B6
:1005700080934B018CE00E94360281E00E9436029B
:100580008BE39FE10197F1F782E080934C0186E0D5
:10059000DF91CF910C94360280620E9436028BE488
:1005A00096E40197F1F780914A0180620E94360239
:1005B00083E592E00197F1F780914A0180620E9401
:1005C0003602D0CF643008F063E090914E01691795
:1005D00010F06FEF690FE62FF0E0E55CFE4F9489B5
:1005E000890F80680C94360241E00E94E30181E0AB
:1005F00090E008951F920F920FB60F9211242F933F
:100600003F938F939F93AF93BF93809133019091CA
:100610003401A0913501B091360130912C0123E0D5
:10062000230F2D3758F50196A11DB11D20932C01E4
:100630008093330190933401A0933501B093360138
:1006400080912D0190912E01A0912F01B091300148
:100650000196A11DB11D80932D0190932E01A093B1
:100660002F01B0933001BF91AF919F918F913F9136
:100670002F910F900FBE0F901F90189526E8230F13
:100680000296A11DB11DD2CF789484B5826084BD3D
:1006900084B5816084BD85B5826085BD85B5816086
:1006A00085BD80916E00816080936E001092810004
:1006B00080918100826080938100809181008160BF
:1006C0008093810080918000816080938000809180
:1006D000B10084608093B1008091B000816080930C
:1006E000B00080917A00846080937A0080917A00D3
:1006F000826080937A0080917A00816080937A0092
:1007000080917A00806880937A001092C10062E044
:1007100088E00E94390162E089E00E94390182E0AC
:100720000E943C0280E40E943602C8E0D1E0699158
:100730008BE391E00E94F40221E0C031D207B9F7C7
:1007400088E40E943602C0E0D1E008E011E069913F
:100750008BE391E00E94F4020C171D07C1F7609132
:10076000310180E00E94E20260E08BE391E00E94B0
:10077000F40260E0809110010E94E20261E08BE3EC
:1007800091E00E94F40200E010E09FE0E92EF12CDD
:10079000CC24C394D12C8091100190911101892B0C
:1007A000C9F48091310190913201892B99F481E053
:1007B0000E9436028BE39FE10197F1F74AE050E097
:1007C0006EE171E08BE391E00E948C0090E080E0AC
:1007D0000E94BD042FB7F8948091330190913401A9
:1007E000A0913501B09136012FBF40913701509152
:1007F00038016091390170913A014C015D01841A10
:10080000950AA60AB70AB501A401443F5140610503
:10081000710548F18093370190933801A093390115
:10082000B0933A018091100160E08F5F0E94E20274
:1008300089E291E00E949301C0911001D0911101D1
:1008400060E08C2F0E94E20261E08BE391E00E9465
:10085000F4022197CF3F8FEFD8070CF465C0D093F7
:100860001101C093100188E00E94E200892BB1F4CD
:10087000109232011092310161E080E00E94E202A8
:1008800089E291E00E9493016091310180E00E9431
:10089000E20260E08BE391E00E94F40289E00E94B2
:1008A000E200892BB1F4D0923201C092310160E0B4
:1008B00080E00E94E20289E291E00E94930160914F
:1008C000310180E00E94E20260E08BE391E00E944F
:1008D000F4020E946A012B013C0184E1882E912CD4
:1008E000A12CB12C0E946A01641975098609970927
:1008F000683E734081059105A8F321E0821A9108B2
:10090000A108B10888EE480E83E0581E611C711CD6
:1009100081149104A104B10429F70115110509F40A
:100920003ACF0E94000037CFF0921101E0921001FF
:100930009ACFEBE3F1E01382128286E191E091839A
:10094000808387E084838FEF858386E0868385E0DC
:10095000878384E0808783E0818782E082871386B3
:10096000148615861686178681E00C943C02EE0FDD
:10097000FF1F0590F491E02D0994F894FFCF000E2D
:100980001B1F031F0E0000181C1F1C1800000F0067
:1009900000000000F4028C0090018F014F59554E69
:0A09A0002042495454490020000091
:107E0000112484B714BE81FFF0D085E080938100F7
:107E100082E08093C00088E18093C10086E0809377
:107E2000C20080E18093C4008EE0C9D0259A86E02C
:107E300020E33CEF91E0309385002093840096BBD3
:107E4000B09BFECF1D9AA8958150A9F7CC24DD24C4
:107E500088248394B5E0AB2EA1E19A2EF3E0BF2EE7
:107E6000A2D0813461F49FD0082FAFD0023811F036
:107E7000013811F484E001C083E08DD089C08234E0
:107E800011F484E103C0853419F485E0A6D080C0E4
:107E9000853579F488D0E82EFF2485D0082F10E0AE
:107EA000102F00270E291F29000F111F8ED06801E7
:107EB0006FC0863521F484E090D080E0DECF843638
:107EC00009F040C070D06FD0082F6DD080E0C81688
:107ED00080E7D80618F4F601B7BEE895C0E0D1E017
:107EE00062D089930C17E1F7F0E0CF16F0E7DF06D8
:107EF00018F0F601B7BEE89568D007B600FCFDCFD4
:107F0000A601A0E0B1E02C9130E011968C91119780
:107F100090E0982F8827822B932B1296FA010C0160
:107F200087BEE89511244E5F5F4FF1E0A038BF0790
:107F300051F7F601A7BEE89507B600FCFDCF97BE46
:107F4000E89526C08437B1F42ED02DD0F82E2BD052
:107F50003CD0F601EF2C8F010F5F1F4F84911BD097
:107F6000EA94F801C1F70894C11CD11CFA94CF0C13
:107F7000D11C0EC0853739F428D08EE10CD085E9AC
:107F80000AD08FE07ACF813511F488E018D01DD067
:107F900080E101D065CF982F8091C00085FFFCCF94
:107FA0009093C60008958091C00087FFFCCF809118
:107FB000C00084FD01C0A8958091C6000895E0E648
:107FC000F0E098E1908380830895EDDF803219F02E
:107FD00088E0F5DFFFCF84E1DECF1F93182FE3DFCA
:107FE0001150E9F7F2DF1F91089580E0E8DFEE27F6
:047FF000FF270994CA
:027FFE00040479
:00000001FF
